{
  "_format": "hh-sol-artifact-1",
  "contractName": "Staker",
  "sourceName": "contracts/Staker.sol",
  "abi": [
    {
      "anonymous": false,
      "inputs": [
        {
          "indexed": false,
          "internalType": "address",
          "name": "who",
          "type": "address"
        },
        {
          "indexed": false,
          "internalType": "uint256",
          "name": "amount",
          "type": "uint256"
        }
      ],
      "name": "Stake",
      "type": "event"
    },
    {
      "inputs": [
        {
          "internalType": "address",
          "name": "",
          "type": "address"
        }
      ],
      "name": "balances",
      "outputs": [
        {
          "internalType": "uint256",
          "name": "",
          "type": "uint256"
        }
      ],
      "stateMutability": "view",
      "type": "function"
    },
    {
      "inputs": [],
      "name": "completed",
      "outputs": [
        {
          "internalType": "bool",
          "name": "",
          "type": "bool"
        }
      ],
      "stateMutability": "view",
      "type": "function"
    },
    {
      "inputs": [],
      "name": "deadline",
      "outputs": [
        {
          "internalType": "uint256",
          "name": "",
          "type": "uint256"
        }
      ],
      "stateMutability": "view",
      "type": "function"
    },
    {
      "inputs": [],
      "name": "execute",
      "outputs": [],
      "stateMutability": "nonpayable",
      "type": "function"
    },
    {
      "inputs": [],
      "name": "failed",
      "outputs": [
        {
          "internalType": "bool",
          "name": "",
          "type": "bool"
        }
      ],
      "stateMutability": "view",
      "type": "function"
    },
    {
      "inputs": [],
      "name": "stake",
      "outputs": [],
      "stateMutability": "payable",
      "type": "function"
    },
    {
      "inputs": [],
      "name": "threshold",
      "outputs": [
        {
          "internalType": "uint256",
          "name": "",
          "type": "uint256"
        }
      ],
      "stateMutability": "view",
      "type": "function"
    },
    {
      "inputs": [],
      "name": "timeLeft",
      "outputs": [
        {
          "internalType": "uint256",
          "name": "",
          "type": "uint256"
        }
      ],
      "stateMutability": "view",
      "type": "function"
    },
    {
      "inputs": [
        {
          "internalType": "address payable",
          "name": "who",
          "type": "address"
        }
      ],
      "name": "withdraw",
      "outputs": [],
      "stateMutability": "nonpayable",
      "type": "function"
    }
  ],
  "bytecode": "0x60806040526018420160015534801561001757600080fd5b506106a9806100276000396000f3fe6080604052600436106100865760003560e01c806342cde4e81161005957806342cde4e81461015057806351cff8d91461017b57806361461954146101cc5780639d9a7fe9146101e3578063ba414fa61461021057610086565b80631300a6d11461008b57806327e235e3146100b657806329dcb0cf1461011b5780633a4b66f114610146575b600080fd5b34801561009757600080fd5b506100a061023d565b6040518082815260200191505060405180910390f35b3480156100c257600080fd5b50610105600480360360208110156100d957600080fd5b81019080803573ffffffffffffffffffffffffffffffffffffffff16906020019092919050505061025d565b6040518082815260200191505060405180910390f35b34801561012757600080fd5b50610130610275565b6040518082815260200191505060405180910390f35b61014e61027b565b005b34801561015c57600080fd5b5061016561031e565b6040518082815260200191505060405180910390f35b34801561018757600080fd5b506101ca6004803603602081101561019e57600080fd5b81019080803573ffffffffffffffffffffffffffffffffffffffff16906020019092919050505061032a565b005b3480156101d857600080fd5b506101e1610461565b005b3480156101ef57600080fd5b506101f861062c565b60405180821515815260200191505060405180910390f35b34801561021c57600080fd5b5061022561063f565b60405180821515815260200191505060405180910390f35b6000600154421115610252576000905061025a565b426001540390505b90565b60006020528060005260406000206000915090505481565b60015481565b7febedb8b3c678666e7f36970bc8f57abf6d8fa2e828c0da91ea5b75bf68ed101a3334604051808373ffffffffffffffffffffffffffffffffffffffff1681526020018281526020019250505060405180910390a1346000803373ffffffffffffffffffffffffffffffffffffffff1673ffffffffffffffffffffffffffffffffffffffff16815260200190815260200160002060008282540192505081905550565b670de0b6b3a764000081565b600260019054906101000a900460ff1661038f576040517f08c379a00000000000000000000000000000000000000000000000000000000081526004018080602001828103825260218152602001806106536021913960400191505060405180910390fd5b60008060008373ffffffffffffffffffffffffffffffffffffffff1673ffffffffffffffffffffffffffffffffffffffff16815260200190815260200160002054905060008060008473ffffffffffffffffffffffffffffffffffffffff1673ffffffffffffffffffffffffffffffffffffffff168152602001908152602001600020819055508173ffffffffffffffffffffffffffffffffffffffff166108fc829081150290604051600060405180830381858888f1935050505015801561045c573d6000803e3d6000fd5b505050565b600260009054906101000a900460ff16156104e4576040517f08c379a00000000000000000000000000000000000000000000000000000000081526004018080602001828103825260118152602001807f416c726561647920636f6d706c6574656400000000000000000000000000000081525060200191505060405180910390fd5b600260019054906101000a900460ff1615610567576040517f08c379a000000000000000000000000000000000000000000000000000000000815260040180806020018281038252600e8152602001807f416c7265616479206661696c656400000000000000000000000000000000000081525060200191505060405180910390fd5b6001544210156105df576040517f08c379a000000000000000000000000000000000000000000000000000000000815260040180806020018281038252601d8152602001807f48617665206e6f74207265616368656420646561646c696e652079657400000081525060200191505060405180910390fd5b670de0b6b3a7640000471061060e576001600260006101000a81548160ff02191690831515021790555061062a565b6001600260016101000a81548160ff0219169083151502179055505b565b600260009054906101000a900460ff1681565b600260019054906101000a900460ff168156fe43616e7420776974686472617720756e74696c2065786563757465206661696c73a26469706673582212200e814e23bd70902b01451fea5a9b4d871bd8b7c2510b680b6d8daa6133732ff064736f6c63430007030033",
  "linkReferences": {},
  "deployedLinkReferences": {}
}