{
  "_format": "hh-sol-artifact-1",
  "contractName": "ExampleExternalContract",
  "sourceName": "contracts/ExampleExternalContract.sol",
  "abi": [
    {
      "inputs": [],
      "name": "complete",
      "outputs": [],
      "stateMutability": "payable",
      "type": "function"
    },
    {
      "inputs": [],
      "name": "completed",
      "outputs": [
        {
          "internalType": "bool",
          "name": "",
          "type": "bool"
        }
      ],
      "stateMutability": "view",
      "type": "function"
    }
  ],
  "bytecode": "0x608060405234801561001057600080fd5b5060c08061001f6000396000f3fe60806040526004361060265760003560e01c8063522e117714602b5780639d9a7fe9146033575b600080fd5b6031605d565b005b348015603e57600080fd5b5060456079565b60405180821515815260200191505060405180910390f35b60016000806101000a81548160ff021916908315150217905550565b60008054906101000a900460ff168156fea2646970667358221220c79410b8ce645209c78e3797678352a014f2fb1d3ca4dda1ce8195a003ce797664736f6c63430007030033",
  "linkReferences": {},
  "deployedLinkReferences": {}
}